{
  "contractName": "AirdropperERC20_v2",
  "abi": [
    {
      "constant": false,
      "inputs": [
        {
          "name": "token",
          "type": "address"
        }
      ],
      "name": "withdraw",
      "outputs": [],
      "payable": false,
      "stateMutability": "nonpayable",
      "type": "function"
    },
    {
      "constant": true,
      "inputs": [],
      "name": "owner",
      "outputs": [
        {
          "name": "",
          "type": "address"
        }
      ],
      "payable": false,
      "stateMutability": "view",
      "type": "function"
    },
    {
      "constant": false,
      "inputs": [
        {
          "name": "token",
          "type": "address"
        },
        {
          "name": "batchId",
          "type": "bytes32"
        },
        {
          "name": "recipients",
          "type": "address[]"
        },
        {
          "name": "amounts",
          "type": "uint256[]"
        }
      ],
      "name": "multiSend",
      "outputs": [],
      "payable": false,
      "stateMutability": "nonpayable",
      "type": "function"
    },
    {
      "constant": true,
      "inputs": [
        {
          "name": "",
          "type": "bytes32"
        }
      ],
      "name": "batches",
      "outputs": [
        {
          "name": "",
          "type": "bool"
        }
      ],
      "payable": false,
      "stateMutability": "view",
      "type": "function"
    },
    {
      "constant": false,
      "inputs": [
        {
          "name": "newOwner",
          "type": "address"
        }
      ],
      "name": "transferOwnership",
      "outputs": [],
      "payable": false,
      "stateMutability": "nonpayable",
      "type": "function"
    },
    {
      "anonymous": false,
      "inputs": [
        {
          "indexed": true,
          "name": "previousOwner",
          "type": "address"
        },
        {
          "indexed": true,
          "name": "newOwner",
          "type": "address"
        }
      ],
      "name": "OwnershipTransferred",
      "type": "event"
    }
  ],
  "bytecode": "0x6060604052336000806101000a81548173ffffffffffffffffffffffffffffffffffffffff021916908373ffffffffffffffffffffffffffffffffffffffff1602179055506107b9806100536000396000f30060606040526004361061006d576000357c0100000000000000000000000000000000000000000000000000000000900463ffffffff16806351cff8d9146100725780638da5cb5b146100ab5780639889950714610100578063c81e25ab1461016e578063f2fde38b146101ad575b600080fd5b341561007d57600080fd5b6100a9600480803573ffffffffffffffffffffffffffffffffffffffff169060200190919050506101e6565b005b34156100b657600080fd5b6100be6103ef565b604051808273ffffffffffffffffffffffffffffffffffffffff1673ffffffffffffffffffffffffffffffffffffffff16815260200191505060405180910390f35b341561010b57600080fd5b61016c600480803573ffffffffffffffffffffffffffffffffffffffff169060200190919080356000191690602001909190803590602001908201803590602001919091929080359060200190820180359060200191909192905050610414565b005b341561017957600080fd5b610193600480803560001916906020019091905050610618565b604051808215151515815260200191505060405180910390f35b34156101b857600080fd5b6101e4600480803573ffffffffffffffffffffffffffffffffffffffff16906020019091905050610638565b005b60008060009054906101000a900473ffffffffffffffffffffffffffffffffffffffff1673ffffffffffffffffffffffffffffffffffffffff163373ffffffffffffffffffffffffffffffffffffffff1614151561024357600080fd5b8173ffffffffffffffffffffffffffffffffffffffff166370a08231306000604051602001526040518263ffffffff167c0100000000000000000000000000000000000000000000000000000000028152600401808273ffffffffffffffffffffffffffffffffffffffff1673ffffffffffffffffffffffffffffffffffffffff168152602001915050602060405180830381600087803b15156102e657600080fd5b6102c65a03f115156102f757600080fd5b5050506040518051905090508173ffffffffffffffffffffffffffffffffffffffff1663a9059cbb6000809054906101000a900473ffffffffffffffffffffffffffffffffffffffff16836000604051602001526040518363ffffffff167c0100000000000000000000000000000000000000000000000000000000028152600401808373ffffffffffffffffffffffffffffffffffffffff1673ffffffffffffffffffffffffffffffffffffffff16815260200182815260200192505050602060405180830381600087803b15156103cf57600080fd5b6102c65a03f115156103e057600080fd5b50505060405180519050505050565b6000809054906101000a900473ffffffffffffffffffffffffffffffffffffffff1681565b60008060009054906101000a900473ffffffffffffffffffffffffffffffffffffffff1673ffffffffffffffffffffffffffffffffffffffff163373ffffffffffffffffffffffffffffffffffffffff1614151561047157600080fd5b828290508585905014151561048557600080fd5b60016000876000191660001916815260200190815260200160002060009054906101000a900460ff161515156104ba57600080fd5b6001806000886000191660001916815260200190815260200160002060006101000a81548160ff021916908315150217905550600090505b8484905081101561060f578673ffffffffffffffffffffffffffffffffffffffff1663a9059cbb868684818110151561052757fe5b9050602002013573ffffffffffffffffffffffffffffffffffffffff16858585818110151561055257fe5b905060200201356000604051602001526040518363ffffffff167c0100000000000000000000000000000000000000000000000000000000028152600401808373ffffffffffffffffffffffffffffffffffffffff1673ffffffffffffffffffffffffffffffffffffffff16815260200182815260200192505050602060405180830381600087803b15156105e657600080fd5b6102c65a03f115156105f757600080fd5b505050604051805190505080806001019150506104f2565b50505050505050565b60016020528060005260406000206000915054906101000a900460ff1681565b6000809054906101000a900473ffffffffffffffffffffffffffffffffffffffff1673ffffffffffffffffffffffffffffffffffffffff163373ffffffffffffffffffffffffffffffffffffffff1614151561069357600080fd5b600073ffffffffffffffffffffffffffffffffffffffff168173ffffffffffffffffffffffffffffffffffffffff16141515156106cf57600080fd5b8073ffffffffffffffffffffffffffffffffffffffff166000809054906101000a900473ffffffffffffffffffffffffffffffffffffffff1673ffffffffffffffffffffffffffffffffffffffff167f8be0079c531659141344cd1fd0a4f28419497f9722a3daafe3b4186f6b6457e060405160405180910390a3806000806101000a81548173ffffffffffffffffffffffffffffffffffffffff021916908373ffffffffffffffffffffffffffffffffffffffff160217905550505600a165627a7a723058205fbb8f849759c38255c25d25b400922b3e46186017234ab2ded7c0bcbac0aef70029",
  "source": "pragma solidity 0.4.18;\n\nimport \"zeppelin-solidity/contracts/ownership/Ownable.sol\";\nimport \"zeppelin-solidity/contracts/token/ERC20.sol\";\n\n\ncontract AirdropperERC20_v2 is Ownable {\n  mapping(bytes32 => bool) public batches;\n\n  function multiSend(ERC20 token, bytes32 batchId, address[] recipients, uint256[] amounts) external onlyOwner {\n    require(recipients.length == amounts.length);\n    require(!batches[batchId]);\n\n    batches[batchId] = true;\n\n    for (uint256 i = 0; i < recipients.length; i++) {\n      token.transfer(recipients[i], amounts[i]);\n    }\n  }\n\n  function withdraw(ERC20 token) external onlyOwner {\n    uint256 balance = token.balanceOf(this);\n    token.transfer(owner, balance);\n  }\n}",
  "sourcePath": "/mnt/c/Users/stive/Documents/work/diw/DIWtoken/contracts/AirdropperERC20_v2.sol",
  "compiler": {
    "name": "solc",
    "version": "0.4.18+commit.9cf6e910.Emscripten.clang"
  },
  "schemaVersion": "1.0.1",
  "updatedAt": "2018-07-09T10:37:33.459Z"
}