{
  "contractName": "MilestoneCrowdsale",
  "abi": [
    {
      "constant": false,
      "inputs": [
        {
          "name": "_stage",
          "type": "uint8"
        }
      ],
      "name": "isStage",
      "outputs": [
        {
          "name": "",
          "type": "bool"
        }
      ],
      "payable": false,
      "stateMutability": "nonpayable",
      "type": "function"
    },
    {
      "constant": false,
      "inputs": [],
      "name": "burnTokens",
      "outputs": [],
      "payable": false,
      "stateMutability": "nonpayable",
      "type": "function"
    },
    {
      "constant": true,
      "inputs": [],
      "name": "endTime",
      "outputs": [
        {
          "name": "",
          "type": "uint256"
        }
      ],
      "payable": false,
      "stateMutability": "view",
      "type": "function"
    },
    {
      "constant": false,
      "inputs": [],
      "name": "unpause",
      "outputs": [],
      "payable": false,
      "stateMutability": "nonpayable",
      "type": "function"
    },
    {
      "constant": true,
      "inputs": [],
      "name": "weiRaised",
      "outputs": [
        {
          "name": "",
          "type": "uint256"
        }
      ],
      "payable": false,
      "stateMutability": "view",
      "type": "function"
    },
    {
      "constant": true,
      "inputs": [],
      "name": "endSeconds",
      "outputs": [
        {
          "name": "",
          "type": "uint256"
        }
      ],
      "payable": false,
      "stateMutability": "view",
      "type": "function"
    },
    {
      "constant": true,
      "inputs": [],
      "name": "wallet",
      "outputs": [
        {
          "name": "",
          "type": "address"
        }
      ],
      "payable": false,
      "stateMutability": "view",
      "type": "function"
    },
    {
      "constant": true,
      "inputs": [],
      "name": "getMilestonesLength",
      "outputs": [
        {
          "name": "",
          "type": "uint256"
        }
      ],
      "payable": false,
      "stateMutability": "view",
      "type": "function"
    },
    {
      "constant": true,
      "inputs": [],
      "name": "paused",
      "outputs": [
        {
          "name": "",
          "type": "bool"
        }
      ],
      "payable": false,
      "stateMutability": "view",
      "type": "function"
    },
    {
      "constant": false,
      "inputs": [],
      "name": "pause",
      "outputs": [],
      "payable": false,
      "stateMutability": "nonpayable",
      "type": "function"
    },
    {
      "constant": true,
      "inputs": [],
      "name": "owner",
      "outputs": [
        {
          "name": "",
          "type": "address"
        }
      ],
      "payable": false,
      "stateMutability": "view",
      "type": "function"
    },
    {
      "constant": false,
      "inputs": [],
      "name": "start",
      "outputs": [],
      "payable": false,
      "stateMutability": "nonpayable",
      "type": "function"
    },
    {
      "constant": false,
      "inputs": [],
      "name": "removeMilestone",
      "outputs": [],
      "payable": false,
      "stateMutability": "nonpayable",
      "type": "function"
    },
    {
      "constant": false,
      "inputs": [
        {
          "name": "amount",
          "type": "uint256"
        },
        {
          "name": "priceTokenWei",
          "type": "uint256"
        },
        {
          "name": "priceWei",
          "type": "uint256"
        }
      ],
      "name": "addMilestone",
      "outputs": [],
      "payable": false,
      "stateMutability": "nonpayable",
      "type": "function"
    },
    {
      "constant": true,
      "inputs": [],
      "name": "getCurrentMilestoneIndex",
      "outputs": [
        {
          "name": "",
          "type": "bool"
        },
        {
          "name": "",
          "type": "uint256"
        }
      ],
      "payable": false,
      "stateMutability": "view",
      "type": "function"
    },
    {
      "constant": true,
      "inputs": [
        {
          "name": "",
          "type": "uint256"
        }
      ],
      "name": "milestones",
      "outputs": [
        {
          "name": "amount",
          "type": "uint256"
        },
        {
          "name": "priceTokenWei",
          "type": "uint256"
        },
        {
          "name": "priceWei",
          "type": "uint256"
        }
      ],
      "payable": false,
      "stateMutability": "view",
      "type": "function"
    },
    {
      "constant": false,
      "inputs": [
        {
          "name": "beneficiary",
          "type": "address"
        }
      ],
      "name": "buyTokens",
      "outputs": [],
      "payable": true,
      "stateMutability": "payable",
      "type": "function"
    },
    {
      "constant": false,
      "inputs": [],
      "name": "hasEnded",
      "outputs": [
        {
          "name": "",
          "type": "bool"
        }
      ],
      "payable": false,
      "stateMutability": "nonpayable",
      "type": "function"
    },
    {
      "constant": true,
      "inputs": [],
      "name": "weiTokensRaised",
      "outputs": [
        {
          "name": "",
          "type": "uint256"
        }
      ],
      "payable": false,
      "stateMutability": "view",
      "type": "function"
    },
    {
      "constant": false,
      "inputs": [
        {
          "name": "newOwner",
          "type": "address"
        }
      ],
      "name": "transferOwnership",
      "outputs": [],
      "payable": false,
      "stateMutability": "nonpayable",
      "type": "function"
    },
    {
      "constant": true,
      "inputs": [],
      "name": "token",
      "outputs": [
        {
          "name": "",
          "type": "address"
        }
      ],
      "payable": false,
      "stateMutability": "view",
      "type": "function"
    },
    {
      "inputs": [
        {
          "name": "_endSeconds",
          "type": "uint256"
        },
        {
          "name": "_wallet",
          "type": "address"
        },
        {
          "name": "_token",
          "type": "address"
        }
      ],
      "payable": false,
      "stateMutability": "nonpayable",
      "type": "constructor"
    },
    {
      "payable": true,
      "stateMutability": "payable",
      "type": "fallback"
    },
    {
      "anonymous": false,
      "inputs": [
        {
          "indexed": true,
          "name": "purchaser",
          "type": "address"
        },
        {
          "indexed": true,
          "name": "beneficiary",
          "type": "address"
        },
        {
          "indexed": false,
          "name": "value",
          "type": "uint256"
        },
        {
          "indexed": false,
          "name": "amount",
          "type": "uint256"
        }
      ],
      "name": "TokenPurchase",
      "type": "event"
    },
    {
      "anonymous": false,
      "inputs": [],
      "name": "Pause",
      "type": "event"
    },
    {
      "anonymous": false,
      "inputs": [],
      "name": "Unpause",
      "type": "event"
    },
    {
      "anonymous": false,
      "inputs": [
        {
          "indexed": true,
          "name": "previousOwner",
          "type": "address"
        },
        {
          "indexed": true,
          "name": "newOwner",
          "type": "address"
        }
      ],
      "name": "OwnershipTransferred",
      "type": "event"
    }
  ],
  "bytecode": "0x606060405260008060146101000a81548160ff02191690831515021790555060006006556000600755341561003357600080fd5b60405160608061172683398101604052808051906020019091908051906020019091908051906020019091905050336000806101000a81548173ffffffffffffffffffffffffffffffffffffffff021916908373ffffffffffffffffffffffffffffffffffffffff160217905550600083101515156100b157600080fd5b600073ffffffffffffffffffffffffffffffffffffffff168273ffffffffffffffffffffffffffffffffffffffff16141515156100ed57600080fd5b600073ffffffffffffffffffffffffffffffffffffffff168173ffffffffffffffffffffffffffffffffffffffff161415151561012957600080fd5b8260028190555081600560006101000a81548173ffffffffffffffffffffffffffffffffffffffff021916908373ffffffffffffffffffffffffffffffffffffffff16021790555080600160006101000a81548173ffffffffffffffffffffffffffffffffffffffff021916908373ffffffffffffffffffffffffffffffffffffffff1602179055506000600160146101000a81548160ff021916908360028111156101d157fe5b021790555050505061153e806101e86000396000f30060606040526004361061011d576000357c0100000000000000000000000000000000000000000000000000000000900463ffffffff168063057fbd0d1461012857806308003f78146101665780633197cbb61461017b5780633f4ba83a146101a45780634042b66f146101b95780634c936ea8146101e2578063521eb2731461020b5780635759e7af146102605780635c975abb146102895780638456cb59146102b65780638da5cb5b146102cb578063be9a655514610320578063cac38fb214610335578063d279830c1461034a578063d6d65f3d1461037f578063e89e4ed6146103b3578063ec8ac4d8146103f8578063ecb70fb714610426578063f13c8fef14610453578063f2fde38b1461047c578063fc0c546a146104b5575b6101263361050a565b005b341561013357600080fd5b61014c600480803560ff169060200190919050506106a5565b604051808215151515815260200191505060405180910390f35b341561017157600080fd5b6101796107a5565b005b341561018657600080fd5b61018e61099e565b6040518082815260200191505060405180910390f35b34156101af57600080fd5b6101b76109a4565b005b34156101c457600080fd5b6101cc610a62565b6040518082815260200191505060405180910390f35b34156101ed57600080fd5b6101f5610a68565b6040518082815260200191505060405180910390f35b341561021657600080fd5b61021e610a6e565b604051808273ffffffffffffffffffffffffffffffffffffffff1673ffffffffffffffffffffffffffffffffffffffff16815260200191505060405180910390f35b341561026b57600080fd5b610273610a94565b6040518082815260200191505060405180910390f35b341561029457600080fd5b61029c610aa1565b604051808215151515815260200191505060405180910390f35b34156102c157600080fd5b6102c9610ab4565b005b34156102d657600080fd5b6102de610b74565b604051808273ffffffffffffffffffffffffffffffffffffffff1673ffffffffffffffffffffffffffffffffffffffff16815260200191505060405180910390f35b341561032b57600080fd5b610333610b99565b005b341561034057600080fd5b610348610c5f565b005b341561035557600080fd5b61037d6004808035906020019091908035906020019091908035906020019091905050610d4d565b005b341561038a57600080fd5b610392610eac565b60405180831515151581526020018281526020019250505060405180910390f35b34156103be57600080fd5b6103d46004808035906020019091905050610f44565b60405180848152602001838152602001828152602001935050505060405180910390f35b610424600480803573ffffffffffffffffffffffffffffffffffffffff1690602001909190505061050a565b005b341561043157600080fd5b610439610f7d565b604051808215151515815260200191505060405180910390f35b341561045e57600080fd5b610466610f8e565b6040518082815260200191505060405180910390f35b341561048757600080fd5b6104b3600480803573ffffffffffffffffffffffffffffffffffffffff16906020019091905050610f94565b005b34156104c057600080fd5b6104c86110e9565b604051808273ffffffffffffffffffffffffffffffffffffffff1673ffffffffffffffffffffffffffffffffffffffff16815260200191505060405180910390f35b600080600080600161051b816106a5565b151561052657600080fd5b600073ffffffffffffffffffffffffffffffffffffffff168673ffffffffffffffffffffffffffffffffffffffff161415151561056257600080fd5b61056a61110f565b151561057557600080fd5b61057d610eac565b809550819650505084151561059157600080fd5b3492506105a360075484600087611167565b91506105ba836006546112b390919063ffffffff16565b6006819055506105d5826007546112b390919063ffffffff16565b6007819055506106288683600160009054906101000a900473ffffffffffffffffffffffffffffffffffffffff1673ffffffffffffffffffffffffffffffffffffffff166112d19092919063ffffffff16565b8573ffffffffffffffffffffffffffffffffffffffff163373ffffffffffffffffffffffffffffffffffffffff167f623b3804fa71d67900d064613da8f94b9617215ee90799290593e1745087ad188585604051808381526020018281526020019250505060405180910390a361069d6113a4565b505050505050565b6000806000806000809350600160028111156106bd57fe5b600160149054906101000a900460ff1660028111156106d857fe5b14156107475760006004805490501192508280156107305750600461070c600160048054905061140890919063ffffffff16565b81548110151561071857fe5b90600052602060002090600302016000015460075410155b915060035442111590508180610744575080155b93505b8315610772576002600160146101000a81548160ff0219169083600281111561076c57fe5b02179055505b600160149054906101000a900460ff16600281111561078d57fe5b86600281111561079957fe5b14945050505050919050565b60008060009054906101000a900473ffffffffffffffffffffffffffffffffffffffff1673ffffffffffffffffffffffffffffffffffffffff163373ffffffffffffffffffffffffffffffffffffffff1614151561080257600080fd5b61080a610f7d565b151561081557600080fd5b600160009054906101000a900473ffffffffffffffffffffffffffffffffffffffff1673ffffffffffffffffffffffffffffffffffffffff166370a08231306000604051602001526040518263ffffffff167c0100000000000000000000000000000000000000000000000000000000028152600401808273ffffffffffffffffffffffffffffffffffffffff1673ffffffffffffffffffffffffffffffffffffffff168152602001915050602060405180830381600087803b15156108da57600080fd5b6102c65a03f115156108eb57600080fd5b505050604051805190509050600160009054906101000a900473ffffffffffffffffffffffffffffffffffffffff1673ffffffffffffffffffffffffffffffffffffffff166342966c68826040518263ffffffff167c010000000000000000000000000000000000000000000000000000000002815260040180828152602001915050600060405180830381600087803b151561098757600080fd5b6102c65a03f1151561099857600080fd5b50505050565b60035481565b6000809054906101000a900473ffffffffffffffffffffffffffffffffffffffff1673ffffffffffffffffffffffffffffffffffffffff163373ffffffffffffffffffffffffffffffffffffffff161415156109ff57600080fd5b600060149054906101000a900460ff161515610a1a57600080fd5b60008060146101000a81548160ff0219169083151502179055507f7805862f689e2f13df9f062ff482ad3ad112aca9e0847911ed832e158c525b3360405160405180910390a1565b60065481565b60025481565b600560009054906101000a900473ffffffffffffffffffffffffffffffffffffffff1681565b6000600480549050905090565b600060149054906101000a900460ff1681565b6000809054906101000a900473ffffffffffffffffffffffffffffffffffffffff1673ffffffffffffffffffffffffffffffffffffffff163373ffffffffffffffffffffffffffffffffffffffff16141515610b0f57600080fd5b600060149054906101000a900460ff16151515610b2b57600080fd5b6001600060146101000a81548160ff0219169083151502179055507f6985a02210a168e66602d3235cb6db0e70f92b3ba4d376a33c0f3d9434bff62560405160405180910390a1565b6000809054906101000a900473ffffffffffffffffffffffffffffffffffffffff1681565b6000809054906101000a900473ffffffffffffffffffffffffffffffffffffffff1673ffffffffffffffffffffffffffffffffffffffff163373ffffffffffffffffffffffffffffffffffffffff16141515610bf457600080fd5b6000610bff816106a5565b1515610c0a57600080fd5b6000600480549050111515610c1e57600080fd5b610c33600254426112b390919063ffffffff16565b60038190555060018060146101000a81548160ff02191690836002811115610c5757fe5b021790555050565b6000809054906101000a900473ffffffffffffffffffffffffffffffffffffffff1673ffffffffffffffffffffffffffffffffffffffff163373ffffffffffffffffffffffffffffffffffffffff16141515610cba57600080fd5b6000610cc5816106a5565b1515610cd057600080fd5b6000600480549050111515610ce457600080fd5b6004610cff600160048054905061140890919063ffffffff16565b815481101515610d0b57fe5b90600052602060002090600302016000808201600090556001820160009055600282016000905550506004805480919060019003610d499190611477565b5050565b6000809054906101000a900473ffffffffffffffffffffffffffffffffffffffff1673ffffffffffffffffffffffffffffffffffffffff163373ffffffffffffffffffffffffffffffffffffffff16141515610da857600080fd5b6000610db3816106a5565b1515610dbe57600080fd5b600084111515610dcd57600080fd5b600083111515610ddc57600080fd5b600082111515610deb57600080fd5b60006004805490501115610e4057836004610e15600160048054905061140890919063ffffffff16565b815481101515610e2157fe5b906000526020600020906003020160000154101515610e3f57600080fd5b5b60048054806001018281610e5491906114a9565b9160005260206000209060030201600060606040519081016040528088815260200187815260200186815250909190915060008201518160000155602082015181600101556040820151816002015550505050505050565b6000806000806004805490509150600082111515610ed35760008080905093509350610f3e565b600090505b81811015610f2357600481815481101515610eef57fe5b9060005260206000209060030201600001546007541015610f165760018193509350610f3e565b8080600101915050610ed8565b6001610f3960018461140890919063ffffffff16565b935093505b50509091565b600481815481101515610f5357fe5b90600052602060002090600302016000915090508060000154908060010154908060020154905083565b6000610f8960026106a5565b905090565b60075481565b6000809054906101000a900473ffffffffffffffffffffffffffffffffffffffff1673ffffffffffffffffffffffffffffffffffffffff163373ffffffffffffffffffffffffffffffffffffffff16141515610fef57600080fd5b600073ffffffffffffffffffffffffffffffffffffffff168173ffffffffffffffffffffffffffffffffffffffff161415151561102b57600080fd5b8073ffffffffffffffffffffffffffffffffffffffff166000809054906101000a900473ffffffffffffffffffffffffffffffffffffffff1673ffffffffffffffffffffffffffffffffffffffff167f8be0079c531659141344cd1fd0a4f28419497f9722a3daafe3b4186f6b6457e060405160405180910390a3806000806101000a81548173ffffffffffffffffffffffffffffffffffffffff021916908373ffffffffffffffffffffffffffffffffffffffff16021790555050565b600160009054906101000a900473ffffffffffffffffffffffffffffffffffffffff1681565b60008060008061111d610f7d565b92506000341415915066b1a2bc2ec5000034119050600060149054906101000a900460ff1615801561114d575082155b80156111565750815b801561115f5750805b935050505090565b60008060008060008060048054905087101515611186578795506112a6565b60048781548110151561119557fe5b906000526020600020906003020194506111bc8a866000015461140890919063ffffffff16565b93506111eb85600101546111dd87600201548c61142190919063ffffffff16565b61143c90919063ffffffff16565b9250838310159150811561128d57611226856001015461121887600201548761143c90919063ffffffff16565b61142190919063ffffffff16565b905061123b818a61140890919063ffffffff16565b985061125084896112b390919063ffffffff16565b9750611265848b6112b390919063ffffffff16565b99506112868a8a8a61128160018c6112b390919063ffffffff16565b611167565b95506112a6565b6112a083896112b390919063ffffffff16565b97508795505b5050505050949350505050565b60008082840190508381101515156112c757fe5b8091505092915050565b8273ffffffffffffffffffffffffffffffffffffffff1663a9059cbb83836000604051602001526040518363ffffffff167c0100000000000000000000000000000000000000000000000000000000028152600401808373ffffffffffffffffffffffffffffffffffffffff1673ffffffffffffffffffffffffffffffffffffffff16815260200182815260200192505050602060405180830381600087803b151561137c57600080fd5b6102c65a03f1151561138d57600080fd5b50505060405180519050151561139f57fe5b505050565b600560009054906101000a900473ffffffffffffffffffffffffffffffffffffffff1673ffffffffffffffffffffffffffffffffffffffff166108fc349081150290604051600060405180830381858888f19350505050151561140657600080fd5b565b600082821115151561141657fe5b818303905092915050565b600080828481151561142f57fe5b0490508091505092915050565b60008060008414156114515760009150611470565b828402905082848281151561146257fe5b0414151561146c57fe5b8091505b5092915050565b8154818355818115116114a4576003028160030283600052602060002091820191016114a391906114db565b5b505050565b8154818355818115116114d6576003028160030283600052602060002091820191016114d591906114db565b5b505050565b61150f91905b8082111561150b5760008082016000905560018201600090556002820160009055506003016114e1565b5090565b905600a165627a7a7230582022b98747c95bb23d452c1f4717861216b4f5fac9ad781860da0168d03df0f5ef0029",
  "source": "pragma solidity 0.4.18;\n\nimport \"zeppelin-solidity/contracts/ownership/Ownable.sol\";\nimport \"zeppelin-solidity/contracts/lifecycle/Pausable.sol\";\nimport \"zeppelin-solidity/contracts/math/SafeMath.sol\";\nimport \"zeppelin-solidity/contracts/token/SafeERC20.sol\";\nimport \"./DIW.sol\";\n\n\ncontract MilestoneCrowdsale is Ownable, Pausable {\n  using SafeMath for uint256;\n  using SafeERC20 for DIW;\n\n  // The token being sold\n  DIW public token;\n\n  // Stages\n  enum Stages {\n    Preparing,\n    Started,\n    Finished\n  }\n\n  // the stage in which the crowdsale is in\n  Stages private stage;\n\n  // seconds before ending\n  uint256 public endSeconds;\n  // end time\n  uint256 public endTime;\n\n  // milestones (priceTokenWei/priceWei) = (diw/eth)\n  struct Milestone {\n    uint256 amount;\n    uint256 priceTokenWei;\n    uint256 priceWei;\n  }\n  \n  Milestone[] public milestones;\n\n  // address where funds are collected\n  address public wallet;\n\n  // amount of raised money in wei\n  uint256 public weiRaised = 0;\n\n  // amount of tokens raised\n  uint256 public weiTokensRaised = 0;\n\n  /**\n   * event for token purchase logging\n   * @param purchaser who paid for the tokens\n   * @param beneficiary who got the tokens\n   * @param value weis paid for purchase\n   * @param amount amount of tokens purchased\n   */\n  event TokenPurchase(address indexed purchaser, address indexed beneficiary, uint256 value, uint256 amount);\n\n  function MilestoneCrowdsale(uint256 _endSeconds, address _wallet, address _token) public {\n    require(_endSeconds >= 0);\n    require(_wallet != address(0));\n    require(_token != address(0));\n\n    endSeconds = _endSeconds;\n    wallet = _wallet;\n    token = DIW(_token);\n\n    stage = Stages.Preparing;\n  }\n\n  /**\n  * @dev Check if input stage is the current stage, due to the fact that the crowdsale can reach max milestone,\n  * or finish due to endTime, this always checks if it has finished, always use this to check the stage and not\n  * stage variable.\n  * @param _stage Expected stage.\n  */\n  function isStage(Stages _stage) public returns (bool) {\n    bool finished = false;\n\n    // check if is finished\n    if (stage == Stages.Started) {\n      bool hasMilestones = milestones.length > 0;\n      bool reachedFinalMilestone = hasMilestones && weiTokensRaised >= milestones[milestones.length.sub(1)].amount;\n      bool withinPeriod = now <= endTime;\n      finished = reachedFinalMilestone || !withinPeriod;\n    }\n\n    // update stage if it has finished\n    if (finished) stage = Stages.Finished;\n\n    return _stage == stage;\n  }\n\n  modifier atStage(Stages _stage) {\n    require(isStage(_stage));\n    _;\n  }\n\n  /**\n  * @dev Push new milestone to milestones.\n  * @param amount The amount of the new milestone in wei.\n  * @param priceTokenWei Price per token in wei but times 18 to increase precision.\n  */\n  function addMilestone (uint256 amount, uint256 priceTokenWei, uint256 priceWei) external onlyOwner atStage(Stages.Preparing) {\n    require(amount > 0);\n    require(priceTokenWei > 0);\n    require(priceWei > 0);\n\n    // new milestone amount must be larger than the previous milestone\n    if (milestones.length > 0) require(milestones[milestones.length.sub(1)].amount < amount);\n\n    milestones.push(Milestone(amount, priceTokenWei, priceWei));\n  }\n\n  /**\n  * @dev Remove last milestone.\n  */\n  function removeMilestone () external onlyOwner atStage(Stages.Preparing) {\n    require(milestones.length > 0);\n\n    delete milestones[milestones.length.sub(1)];\n    milestones.length--;\n  }\n\n  /**\n  * @dev Get the amount of milestones.\n  * @return An uint256 representing the amount of milestones.\n  */\n  function getMilestonesLength () public view returns (uint256) {\n    return milestones.length;\n  }\n\n  /**\n  * @dev Get active milestone index.\n  * @return bool A bool represeting if milestone was found.\n  * @return uint256 An uint256 representing the index within the milestones array.\n  */\n  function getCurrentMilestoneIndex () public view returns (bool, uint256) {\n    uint256 length = milestones.length;\n\n    if (length <= 0) {\n      return (false, 0);\n    }\n\n    for (uint256 i = 0; i < length; i++) {\n      if (weiTokensRaised < milestones[i].amount) {\n        return (true, i);\n      }\n    }\n\n    return (true, length.sub(1));\n  }\n\n  // fallback function can be used to buy tokens\n  function () external payable {\n    buyTokens(msg.sender);\n  }\n\n  function calculateTokens(uint256 _weiTokensRaised, uint256 weiAmount, uint256 tokensWeiAmount, uint256 index) internal returns (uint256) {\n    if (index >= milestones.length) {\n      return tokensWeiAmount;\n    }\n\n    Milestone storage currentMilestone = milestones[index];\n    \n    // get how many tokens left in current milestone\n    uint256 tokensLeft = currentMilestone.amount.sub(_weiTokensRaised);\n\n    // get how many tokens will be bought if current milestone is used\n    uint256 tokensToBeBought = weiAmount.div(currentMilestone.priceWei).mul(currentMilestone.priceTokenWei);\n\n    // tokensToBeBought bigger than whats left in the milestone\n    bool biggerThanMilestone = tokensToBeBought >= tokensLeft;\n\n    if (biggerThanMilestone) {\n      uint256 weiUsed = tokensLeft.mul(currentMilestone.priceWei).div(currentMilestone.priceTokenWei);\n\n      weiAmount = weiAmount.sub(weiUsed);\n      tokensWeiAmount = tokensWeiAmount.add(tokensLeft);\n      _weiTokensRaised = _weiTokensRaised.add(tokensLeft);\n\n      return calculateTokens(_weiTokensRaised, weiAmount, tokensWeiAmount, index.add(1));\n    } else {\n      tokensWeiAmount = tokensWeiAmount.add(tokensToBeBought);\n\n      return tokensWeiAmount;\n    }\n  }\n\n  // low level token purchase function\n  function buyTokens(address beneficiary) public payable atStage(Stages.Started) {\n    require(beneficiary != address(0));\n    require(validPurchase());\n\n    bool found;\n    uint256 index;\n    (found, index) = getCurrentMilestoneIndex();\n    require(found);\n\n    uint256 weiAmount = msg.value;\n    uint256 tokensWeiAmount = calculateTokens(weiTokensRaised, weiAmount, 0, index);\n\n    // update state\n    weiRaised = weiRaised.add(weiAmount);\n    weiTokensRaised = weiTokensRaised.add(tokensWeiAmount);\n\n    // transfer\n    token.safeTransfer(beneficiary, tokensWeiAmount);\n\n    // log\n    TokenPurchase(msg.sender, beneficiary, weiAmount, tokensWeiAmount);\n\n    forwardFunds();\n  }\n\n  // send ether to the fund collection wallet\n  // override to create custom fund forwarding mechanisms\n  function forwardFunds() internal {\n    wallet.transfer(msg.value);\n  }\n\n  /**\n  * @return bool true if the transaction can buy tokens\n  */\n  function validPurchase() internal returns (bool) {\n    bool ended = hasEnded();\n    bool nonZeroPurchase = msg.value != 0;\n    bool biggerThanMinimum = msg.value > 50000000000000000;\n    \n    return !paused && !ended && nonZeroPurchase && biggerThanMinimum;\n  }\n\n  /**\n  * @return bool true if crowdsale event has ended\n  */\n  function hasEnded() public returns (bool) {\n    return isStage(Stages.Finished);\n  }\n\n  /**\n  * @dev Owner can start the crowdsale, initiating endTime.\n  */\n  function start () external onlyOwner atStage(Stages.Preparing) {\n    require(milestones.length > 0);\n\n    endTime = now.add(endSeconds);\n    stage = Stages.Started;\n  }\n\n  /**\n  * @dev When crowdsale has ended, owner can burn the remaining tokens.\n  */\n  function burnTokens() external onlyOwner {\n    require(hasEnded());\n\n    uint256 amount = token.balanceOf(this);\n    token.burn(amount);\n  }\n}",
  "sourcePath": "/home/user/Documents/work/DIW/Digital-Identification-Wallet-ICO/contracts/MilestoneCrowdsale.sol",
  "compiler": {
    "name": "solc",
    "version": "0.4.18+commit.9cf6e910.Emscripten.clang"
  },
  "schemaVersion": "1.0.1",
  "updatedAt": "2018-01-19T11:33:38.829Z"
}